:020000040800F2
:1000000000000220DD0200082D0300082D03000877
:100010002D0300082D0300082D0300080000000038
:100020000000000000000000000000002D03000898
:100030002D030008000000002D0300082D03000818
:100040002D0300082D0300082D0300082D030008D0
:100050002D0300082D0300082D0300082D030008C0
:100060002D0300082D0300082D0300082D030008B0
:100070002D0300082D0300082D0300082D030008A0
:100080002D0300082D0300082D0300082D03000890
:100090002D0300082D0300082D0300082D03000880
:1000A0002D0300082D0300082D0300082D03000870
:1000B0002D0300082D0300082D0300082D03000860
:1000C0002D0300082D0300082D0300082D03000850
:1000D0002D0300082D0300082D0300082D03000840
:1000E0002D0300082D0300082D0300082D03000830
:1000F0002D0300082D0300082D0300082D03000820
:100100002D0300082D0300082D0300082D0300080F
:100110002D0300082D0300082D0300082D030008FF
:100120002D0300082D0300082D0300082D030008EF
:100130002D0300082D0300082D0300082D030008DF
:100140002D0300082D0300082D0300082D030008CF
:100150002D0300082D0300082D0300082D030008BF
:100160002D0300082D0300082D0300082D030008AF
:100170002D0300082D0300082D03000800000000D7
:080180002D0300082D03000807
:100188000348044B834202D0034B03B1184770471E
:100198000000002000000020000000000548064B79
:1001A8001B1AD90F01EBA301491002D0034B03B16D
:1001B80018477047000000200000002000000000E1
:1001C80010B5064C237843B9FFF7DAFF044B13B197
:1001D8000448AFF300800123237010BD0000002005
:1001E800000000007803000808B5054B1BB105495D
:1001F8000548AFF30080BDE80840FFF7CFBF00BF58
:1002080000000000040000207803000880B400AF5C
:1002180000BFBD465DF8047B7047000080B485B020
:1002280000AF294B1B6B284A43F008031363274B85
:100238001B68264A23F07F431360244B1B68234A1C
:1002480043F0AA431360214B5B69204A43F40053EF
:1002580053610023FB6002E0FB680133FB60FB682D
:100268001B4A9342F8D9194B5B69184A43F4004377
:1002780053610023BB6002E0BB680133BB60BB680D
:10028800134A9342F8D9114B5B69104A23F400537F
:10029800536100237B6002E07B6801337B607B68ED
:1002A8000B4A9342F8D9094B5B69084A23F4004387
:1002B800536100233B6002E03B6801333B603B68CD
:1002C800034A9342F8D9BEE700380240000C0240C6
:1002D8003F4B4C00DFF834D00D480E490E4A00233E
:1002E80002E0D458C4500433C4188C42F9D30B4AE2
:1002F8000B4C002301E013600432A242FBD3FFF74A
:1003080085FF00F011F8FFF789FF70470000022011
:1003180000000020000000209803000800000020D2
:100328001C000020FEE7000070B50D4B0D4D5B1B57
:100338009C100026A64209D100F01AF80A4D0B4B72
:100348005B1B9C100026A64205D170BD55F8043BE6
:1003580098470136EEE755F8043B98470136F2E72F
:100368009003000890030008900300089403000815
:10037800F8B500BFF8BC08BC9E467047F8B500BF8A
:08038800F8BC08BC9E4670475A
:04039000F10100086F
:04039400C901000893
:04000005080002DD10
:00000001FF
